:100000000C9434000C9440000C943E000C943E0080
:100010000C943E000C943E000C943E000C943E0068
:100020000C943E000C943E000C943E000C943E0058
:100030000C943E000C943E000C943E000C943E0048
:100040000C943E000C943E000C943E000C943E0038
:100050000C943E000C943E000C943E000C943E0028
:100060000C943E000C943E0011241FBECFEFD8E04C
:10007000DEBFCDBF0E9467000C9473000C9400009B
:100080001F920F920FB60F9211242F933F934F930D
:100090005F938F939F9320E030E048EA51E6299ADE
:1000A000CA010197F1F72998CA010197F1F72F5F6B
:1000B0003F4F2530310599F79F918F915F914F9177
:1000C0003F912F910F900FBE0F901F90189582E0D7
:1000D00084B984E08AB98091690081608093690065
:0A00E000E89A7894FFCFF894FFCF60
:00000001FF
