:1000000012C021C020C01FC01EC01DC01CC01BC00C
:100010001AC032C018C018C016C015C014C013C012
:1000200012C011C010C011241FBECFE5D4E0DEBF46
:10003000CDBF10E0A0E6B0E001C01D92A536B1072B
:10004000E1F74ED0ADC0DCCF1F920F920FB60F92EA
:1000500011248F938CB180936400809161008F5F35
:1000600080936100A89882E3809360008F910F9045
:100070000FBE0F901F9018951F920F920FB60F9200
:1000800011248F939F9382B78A5F82BF8091600013
:10009000823030F0809160008150809360000AC00F
:1000A00080916000813031F48091600081508093B4
:1000B0006000A89A8091620090916300892B49F0BA
:1000C0008091620090916300019790936300809308
:1000D00062009F918F910F900FBE0F901F90189507
:1000E00083E084BB82E081BBF8948CE089B910BCCA
:1000F00088E98AB989B7816089BF83B7836083BF84
:1001000086E082BF7894A89A109261009091610075
:100110005D9BFECF83E48CB95D9BFECF89E68CB9F5
:100120005D9BFECF81E68CB95D9BFECF8FE68CB9DF
:100130005D9BFECF81E28CB9109263001092620049
:10014000809161009817E1F39091610080916400C3
:100150005D9BFECF8CB980916400813621F0809147
:100160006400813469F7A99902C0A99AE9CFA998D6
:10017000E7CF8CE089B910BC88E98AB908955D9B06
:10018000FECF8CB908955F9BFECF8CB1089589B7DF
:10019000816089BF83B7836083BF86E082BF089593
:0401A000F894FFCF01
:00000001FF
