:1000000012C021C020C01FC01EC01DC01CC01BC00C
:100010001AC01AC018C017C016C015C014C013C02B
:1000200012C011C010C011241FBECFE5D4E0DEBF46
:10003000CDBF10E0A0E6B0E001C01D92A136B1072F
:10004000E1F721D036C0DCCF1F920F920FB60F928E
:1000500011248F9382B78A5F82BF809160008823CA
:1000600021F081508093600008C084EF809360008D
:10007000A89902C0A89A01C0A8988F910F900FBEAE
:100080000F901F90189581E084BBF89489B7816028
:1000900089BF83B7836083BF86E082BF7894FFCF38
:1000A00089B7816089BF83B7836083BF86E082BFE1
:0600B0000895F894FFCF53
:00000001FF
