:100000000C9434000C949A000C943E000C943E0026
:100010000C943E000C943E000C943E000C943E0068
:100020000C943E000C943E000C943E000C943E0058
:100030000C943E000C943E000C943E000C943E0048
:100040000C943E000C943E000C943E000C943E0038
:100050000C943E000C943E000C943E000C943E0028
:100060000C943E000C943E0011241FBECFEFD8E04C
:10007000DEBFCDBF0E945B000C9407010C94000012
:10008000DF93CF930F92CDB7DEB78983298140E00C
:1000900081E090E002C0880F991F6A95E2F730E096
:1000A00082239323181619060CF441E0842F0F9035
:1000B000CF91DF910895DF93CF930F92CDB7DEB745
:1000C000A89581E088B982E087B984B984E08AB9CB
:1000D00080916900816080936900E89A80E090E0F7
:1000E0000E94F1008111299A7894DE01119628EC82
:1000F00030E0A89586B189838C9180FDFACF83B1D9
:1001000089838C9181FD14C0299A86B189838C9151
:1001100080FD02C0A895F9CF80E090E0A895F90194
:100120003197F1F7019643E0883E9407B9F7E1CFA4
:100130002998EBCF1F920F920FB60F9211242F9395
:100140003F934F935F936F937F938F939F93AF935F
:10015000BF93EF93FF93DF93CF930F92CDB7DEB7AB
:1001600083B18983898181FD24C080E090E060E0D3
:100170000E94F900419A20E030E048EC50E0A89558
:10018000CA010197F1F72F5F3F4F81E0243F380705
:10019000B1F7419820E030E048EC50E0A895CA0162
:1001A0000197F1F72F5F3F4F81E0243F3807B1F708
:1001B00004C080E090E061E0DBCF0F90CF91DF9151
:1001C000FF91EF91BF91AF919F918F917F916F912F
:1001D0005F914F913F912F910F900FBE0F901F9005
:1001E0001895F999FECF92BD81BDF89A992780B5EF
:1001F0000895262FF999FECF1FBA92BD81BD20BD6B
:100200000FB6F894FA9AF99A0FBE01960895F894E9
:02021000FFCF1E
:00000001FF
