:1000000012C019C018C017C016C015C014C013C044
:1000100012C011C010C00FC00EC00DC00CC00BC06C
:100020000AC009C008C011241FBECFE5D4E0DEBF5E
:10003000CDBF21D02EC0E4CF8FEF91E09BBD8ABD14
:100040008FB580688FBD8FB583608FBD8EB58260A0
:100050008EBD089580E487B987E886B9089597B181
:100060008770987F892B87B9369A3699FECF24B14D
:1000700035B1C901089582E087BBF894DDDF80E4E3
:1000800087B987E886B9789480E0E9DF9BBD8ABDAF
:06009000FBCFF894FFCF46
:00000001FF
