:100000000C9434000C9449000C9449000C94490061
:100010000C9449000C9449000C9449000C9449003C
:100020000C9449000C9449000C9449000C9449002C
:100030000C9449000C9449000C9449000C9449001C
:100040000C9449000C9449000C9449000C9449000C
:100050000C9449000C9449000C9449000C944900FC
:100060000C9449000C94490011241FBECFEFD8E036
:10007000DEBFCDBF11E0A0E0B1E0E2E5F9E002C0F3
:1000800005900D92AE30B107D9F70E9490020C9402
:10009000A7040C940000AF92BF92CF92DF92EF9230
:1000A000FF920F931F93A0E0B0E0BC01CD010E942E
:1000B00039035B016C012BEA3AEA4AE250E40E9400
:1000C000EF037B018C0120E030E040E85FE30E9419
:1000D000A102882314F461E054C0C801B70120E0F4
:1000E00030E04FE753E40E94EB0318160CF045C0D4
:1000F000C601B50120E030E04AE754E40E94A502C1
:100100005B016C0120E030E04AEF54E40E94EF0311
:100110007B018C0120E030E040E85FE30E94A10217
:1001200088231CF461E070E024C0C801B70120E01E
:100130003FEF4FE757E40E94EB031816B4F4C601F3
:10014000B50120E030E040E251E40E94EF030E945C
:100150000D0388EC90E005C0FC013197F1F7615088
:10016000704061157105C1F70EC0C801B7010E944A
:100170000D03CB010197F1F706C0C801B7010E943A
:100180000D036A95F1F71F910F91FF90EF90DF90AB
:10019000CF90BF90AF9008950F931F93CF93DF93AD
:1001A0008C01C0E0D0E005C088EE93E00E944B00D7
:1001B0002196C017D107C0F3DF91CF911F910F9106
:1001C00008950F931F93CF93DF938C01C0E0D0E08D
:1001D0000BC0289A81E090E00E944B00289888EE9E
:1001E00093E00E944B002196C017D10790F3DF9156
:1001F000CF911F910F910895459A81E090E00E9460
:100200004B004598089587FF02C0439A01C0439868
:1002100086FF02C0429A01C0429885FF02C0419AFF
:1002200001C0419884FF02C0409A01C040980E94DA
:10023000FC0008951F93182F0E940301812F8295BF
:10024000807F0E94030182E390E00E944B001F9197
:10025000089544980E941A010895823069F083300D
:1002600018F48130A9F405C0833049F0843081F45A
:100270000BC0862F815805C0862F815402C0862F5F
:1002800081570E9429010895862F81530E942901D8
:10029000089581E00E94290183E090E00E94E1003E
:1002A0000895449A0E941A010895EF92FF920F93C5
:1002B0001F93CF93DF937C0104E020E0023079F0BC
:1002C000033018F4013081F40DC0033029F00430FC
:1002D00059F4C0E1D7E208C0C8EED3E005C0C4E6D7
:1002E000D0E002C0CAE0D0E0C701BE010E947104A4
:1002F000162F222311F4662329F0812F805D0E949E
:10030000510121E0812F90E0AC014C9FC0014D9F35
:10031000900D5C9F900D1124E81AF90A015071F6B6
:100320008E2D805D0E945101DF91CF911F910F9121
:10033000FF90EF900895CF93DF93EC0197FF06C0F5
:100340008DE20E945101D095C195DF4FCE010E94F0
:100350005501DF91CF910895CF93DF93EC01449A3B
:1003600003C021960E941A0188818823D1F7DF916A
:10037000CF9108957F928F929F92AF92BF92CF922A
:10038000DF92EF92FF920F931F934B015C01F9E014
:10039000CF2E772485E0C81609F442C08C15A0F052
:1003A00082E0C81609F452C08C1528F081E0C81606
:1003B00009F057C051C083E0C81609F440C084E07A
:1003C000C81609F04EC034C087E0C816C9F0C81678
:1003D000F8F088E0C81661F089E0C81609F041C05D
:1003E000E12CEAECFE2EEAE90E2FEBE31E2F39C0DA
:1003F000E12C71EEF72E75EF072F75E0172F31C046
:1004000060E8E62E66E9F62E68E9062F112D29C070
:1004100050E4E52E52E4F52E5FE0052F112D21C0AA
:1004200040EAE42E46E8F42E41E0042F112D19C0D5
:1004300030E1E32E37E2F32E012D112D12C028EE0C
:10044000E22E23E0F22E012D112D0BC094E6E92EB1
:10045000F12C012D112D05C08AE0E82EF12C012D83
:10046000112DC501B401A80197010E948504D22E67
:10047000772011F4222331F08D2D805D0E945101EF
:10048000772473946D2D70E080E090E0A8019701CF
:100490000E945204861A970AA80AB90ACA9409F057
:1004A00079CF882D805D0E9451011F910F91FF909F
:1004B000EF90DF90CF90BF90AF909F908F907F9004
:1004C000089544988FE090E00E94E100409A419A9C
:1004D000429843980E94FC0085E090E00E94E10071
:1004E0000E94FC0084E690E00E944B000E94FC0009
:1004F00085E090E00E94E10040980E94FC0088E2C4
:1005000090E00E944B0088E20E941A0188E00E945D
:100510001A018CE00E941A0186E00E941A010895D7
:1005200015B81BB818B881E084B91AB88FE387B939
:100530000E9461020E94490180E091E00E94AC01AA
:10054000FFCFD4D008F481E008950CD00AC102D1C5
:1005500040F0F9D030F021F45F3F19F0EBC05111B9
:1005600034C1EEC00FD198F39923C9F35523B1F3E9
:10057000951B550BBB27AA2762177307840738F012
:100580009F5F5F4F220F331F441FAA1FA9F333D071
:100590000E2E3AF0E0E830D091505040E695001C25
:1005A000CAF729D0FE2F27D0660F771F881FBB1FE1
:1005B000261737074807AB07B0E809F0BB0B802DBB
:1005C000BF01FF2793585F4F2AF09E3F510568F007
:1005D000B1C0FBC05F3FECF3983EDCF386957795A6
:1005E0006795B795F7959F5FC9F7880F911D969509
:1005F000879597F90895E1E0660F771F881FBB1F65
:10060000621773078407BA0720F0621B730B840B11
:10061000BA0BEE1F88F7E0950895BCD088F09F577D
:1006200090F0B92F9927B751A0F0D1F0660F771F3E
:10063000881F991F1AF0BA95C9F712C0B13081F01E
:10064000C3D0B1E00895C0C0672F782F8827B85F66
:1006500039F0B93FCCF3869577956795B395D9F77F
:100660003EF490958095709561957F4F8F4F9F4F89
:100670000895E89409C097FB3EF490958095709595
:1006800061957F4F8F4F9F4F9923A9F0F92F96E9DE
:10069000BB279395F695879577956795B795F11153
:1006A000F8CFFAF4BB0F11F460FF1BC06F5F7F4FF0
:1006B0008F4F9F4F16C0882311F096E911C0772302
:1006C00021F09EE8872F762F05C0662371F096E80B
:1006D000862F70E060E02AF09A95660F771F881FDA
:1006E000DAF7880F9695879597F90895990F00087E
:1006F000550FAA0BE0E8FEEF16161706E807F907F4
:10070000C0F012161306E407F50798F0621B730B8E
:10071000840B950B39F40A2661F0232B242B252B0F
:1007200021F408950A2609F4A140A6958FEF811DB2
:10073000811D089597F99F6780E870E060E0089553
:100740009FEF80EC089500240A94161617061806E9
:100750000906089500240A941216130614060506C5
:100760000895092E0394000C11F4882352F0BB0F56
:1007700040F4BF2B11F460FF04C06F5F7F4F8F4FB9
:100780009F4F089557FD9058440F551F59F05F3FF4
:1007900071F04795880F97FB991F61F09F3F79F0A3
:1007A00087950895121613061406551FF2CF469525
:1007B000F1DF08C0161617061806991FF1CF8695A7
:1007C0007105610508940895E894BB27662777278B
:1007D000CB0197F908958ADF08F48FEF08950BD0C5
:1007E000C0CFB1DF28F0B6DF18F0952309F0A2CF13
:1007F000A7CF1124EACFC6DFA0F3959FD1F3950FC1
:1008000050E0551F629FF001729FBB27F00DB11D94
:10081000639FAA27F00DB11DAA1F649F6627B00D24
:10082000A11D661F829F2227B00DA11D621F739F0D
:10083000B00DA11D621F839FA00D611D221F749F1B
:100840003327A00D611D231F849F600D211D822F62
:10085000762F6A2F11249F5750408AF0E1F08823A9
:100860004AF0EE0FFF1FBB1F661F771F881F9150B6
:100870005040A9F79E3F510570F05CCFA6CF5F3F77
:10088000ECF3983EDCF3869577956795B795F795E9
:10089000E7959F5FC1F7FE2B880F911D9695879571
:1008A00097F90895629FD001739FF001829FE00D38
:1008B000F11D649FE00DF11D929FF00D839FF00DDF
:1008C000749FF00D659FF00D9927729FB00DE11D8B
:1008D000F91F639FB00DE11DF91FBD01CF01112468
:1008E0000895AA1BBB1B51E107C0AA1FBB1FA61777
:1008F000B70710F0A61BB70B881F991F5A95A9F7C9
:1009000080959095BC01CD010895A1E21A2EAA1BF5
:10091000BB1BFD010DC0AA1FBB1FEE1FFF1FA217AF
:10092000B307E407F50720F0A21BB30BE40BF50BAC
:10093000661F771F881F991F1A9469F76095709535
:10094000809590959B01AC01BD01CF010895F8946D
:02095000FFCFD7
:0E09520048656C6C6F20576F726C642100005A
:00000001FF
