:100000000C9434000C943E000C943E000C943E0082
:100010000C943E000C943E000C943E000C943E0068
:100020000C943E000C943E000C943E000C943E0058
:100030000C943E000C943E000C943E000C943E0048
:100040000C943E000C943E000C943E000C943E0038
:100050000C943E000C943E000C943E000C943E0028
:100060000C943E000C943E0011241FBECFEFD8E04C
:10007000DEBFCDBF0E9440000C94A5000C94000090
:1000800081E087B92DE088E190E00FB6F894A8955B
:10009000809360000FBE20936000A89520E030E0C0
:1000A00061E040ED57E088B1862788B980E090E0B4
:1000B000A895FA013197F1F7019673E0883E97070A
:1000C000B9F72F5F3F4F2A30310569F720E030E064
:1000D00061E040ED57E088B1862788B980E090E084
:1000E000A895FA013197F1F7019684369105C1F789
:1000F0002F5F3F4F2436310571F7FFCFDF93CF934A
:100100000F92CDB7DEB78983298140E081E090E08E
:1001100002C0880F991F6A95E2F730E0822393238B
:10012000181619060CF441E0842F0F90CF91DF913F
:1001300008952DE088E190E00FB6F894A89580939B
:0E01400060000FBE209360000895F894FFCF7A
:00000001FF
