:100000000C9434000C9446000C9446000C9446006A
:100010000C9446000C9446000C9446000C94460048
:100020000C9446000C9446000C9446000C94460038
:100030000C9446000C9446000C9446000C94460028
:100040000C9448000C9446000C9446000C94460016
:100050000C9446000C9446000C9446000C94460008
:100060000C9446000C94460011241FBECFEFD8E03C
:10007000DEBFCDBF11E0A0E0B1E001C01D92A13014
:10008000B107E1F70E9472000C94A7000C940000E5
:100090001F920F920FB60F9211248F93DF93CF937D
:1000A0000F92CDB7DEB786B58E5786BD8091000121
:1000B000882321F08150809300010BC084E6809357
:1000C000000186B18983898180FD02C0409A01C008
:1000D00040980F90CF91DF918F910F900FBE0F90AE
:1000E0001F90189581E087B9F89480916E00816027
:1000F00080936E0082E886BD85B5836085BD789467
:10010000FFCFEEE6F0E080818160808382E886BDEB
:1001100085B5836085BD0895DF93CF930F92CDB7EA
:10012000DEB78983298140E081E090E002C0880F3A
:10013000991F6A95E2F730E0822393231816190677
:100140000CF441E0842F0F90CF91DF910895F89443
:02015000FFCFDF
:00000001FF
