:100000000C9434000C943E000C943E000C943E0082
:100010000C943E000C943E000C943E000C943E0068
:100020000C943E000C943E000C943E000C943E0058
:100030000C943E000C943E000C943E000C943E0048
:100040000C943E000C943E000C943E000C943E0038
:100050000C943E000C943E000C943E000C943E0028
:100060000C943E000C943E0011241FBECFEFD8E04C
:10007000DEBFCDBF0E9440000C947B000C940000BA
:1000800015B81BB818B88EE084B91AB817B881EA49
:100090008093800092E09093810081E88093B0008B
:1000A0009093B10084E690E090938900809388005B
:1000B00082E390E090938B0080938A0088EC809399
:1000C000B300FFCF81EA8093800092E0909381009B
:1000D00081E88093B0009093B100089590E09093F0
:1000E00089008093880070E070938B0060938A0091
:0A00F0004093B3000895F894FFCF89
:00000001FF
